:10000000020058898288838B00EC4D6036E4E0F66C
:1000100008A31DBDFFF31C80F0B800118B00EC4D50
:100020006021E7F609081DBDFFF41C80F189828874
:10003000838B00EC4D600CE493F608A31DBDFFF329
:100040001C80F022E4F5D075814378207A23F608ED
:0B005000DAFC12013402000002004440
:10010000455048413341504F424144754A49444F5C
:10011000504136455044754D795041544F42484105
:1001200080108D998D428000309902800280F9C242
:10013000992280EE020245780179007A007B227DC7
:100140000A7C001200197801790A7A007B2C7D085C
:100150007C00120019780179127A007B347D0E7CC4
:1001600000120019758780758920D28E758DFDE487
:10017000F520F521E52124F6E5206480347F500246
:1001800080028002802C74222521F987E075985026
:1001900074222521F987051201200521E52170022D
:1001A0000520E52124F6E5206480347F500280029A
:1001B00080D47D0A120120E4F520F521E52124F800
:1001C000E5206480347F500280028002802C742CF1
:1001D0002521F987E0759850742C2521F98705129F
:1001E00001200521E52170020520E52124F8E52004
:1001F0006480347F5002800280D47D0A120120E4A2
:10020000F520F521E52124F2E5206480347F5002B9
:1002100080028002802C74342521F987E075985083
:1002200074342521F987051201200521E52170028A
:100230000520E52124F2E5206480347F500280020D
:0802400080D480FE2202013788
:00000001FF
